:100000000C9462000C948A000C948A000C948A0070
:100010000C948A000C948A000C948A000C948A0038
:100020000C948A000C948A000C948A000C94560458
:100030000C948A000C948A000C948A000C948A0018
:100040000C94B4030C948A000C9424040C94FE03C6
:100050000C948A000C948A000C948A000C948A00F8
:100060000C948A000C948A000000000023002600F3
:10007000290000000000240027002A0000000000E2
:10008000250028002B0004040404040404040202D4
:100090000202020203030303030301020408102007
:1000A0004080010204081020010204081020000012
:1000B0000008000201000003040700000000000027
:1000C0000000780511241FBECFEFD8E0DEBFCDBF02
:1000D00011E0A0E0B1E0E4E7F1E102C005900D928B
:1000E000A631B107D9F721E0A6E1B1E001C01D9228
:1000F000AC3EB207E1F710E0C2E6D0E004C02197C1
:10010000FE010E94AD08C136D107C9F70E94B505AE
:100110000C94B8080C94000090E0FC01E255FF4FED
:100120002491FC01E656FF4F3491FC01EA57FF4F42
:10013000E491EE2309F43CC0222339F1233091F0FD
:1001400038F42130A9F0223001F584B58F7D12C03A
:10015000273091F02830A1F02430B9F4809180004C
:100160008F7D03C0809180008F77809380000DC0C9
:1001700084B58F7784BD09C08091B0008F7703C0AC
:100180008091B0008F7D8093B000F0E0EE0FFF1FF4
:10019000E458FF4FA591B4919FB7F894611104C042
:1001A0008C913095382302C0EC913E2B3C939FBF3D
:1001B0000895CF93DF9390E0FC01E656FF4F249122
:1001C000FC01EA57FF4F8491882361F190E0880F8A
:1001D000991FFC01EE58FF4FC591D491FC01E458E2
:1001E000FF4FA591B491611109C09FB7F894888120
:1001F000209582238883EC912E230BC0623061F41A
:100200009FB7F8948881322F309583238883EC91AF
:100210002E2B2C939FBF06C08FB7F894E8812E2B0E
:1002200028838FBFDF91CF9108953FB7F8948091D5
:10023000410190914201A0914301B091440126B542
:10024000A89B05C02F3F19F00196A11DB11D3FBF0E
:10025000BA2FA92F982F8827820F911DA11DB11D9C
:10026000BC01CD0142E0660F771F881F991F4A9598
:10027000D1F708958F929F92AF92BF92CF92DF9263
:10028000EF92FF920E9415014B015C0188EBC82E92
:100290008BE0D82EE12CF12C0E941501DC01CB0162
:1002A00088199909AA09BB09883E9340A105B1059F
:1002B00098F321E0C21AD108E108F10888EE880E0F
:1002C00083E0981EA11CB11CC114D104E104F10407
:1002D00019F7FF90EF90DF90CF90BF90AF909F9075
:1002E0008F900895CF92DF92EF92FF920F931F931A
:1002F000CF93DF936C017A018B01C0E0D0E0CE1583
:10030000DF0581F0D8016D918D01D601ED91FC9151
:100310000190F081E02DC6010995892B11F02196FD
:10032000EECF7E01C701DF91CF911F910F91FF901A
:10033000EF90DF90CF900895089580E090E00895C9
:10034000FC01538D448D252F30E0842F90E0821BDB
:10035000930B541710F0CF96089501970895FC0160
:10036000918D828D981761F0828DDF01A80FB11DEC
:100370005D968C91928D9F5F9F73928F90E0089510
:100380008FEF9FEF0895FC01918D828D981731F0CA
:10039000828DE80FF11D858D90E008958FEF9FEF1E
:1003A0000895FC01918D228D892F90E0805C9F4FF4
:1003B000821B91098F739927089585E491E00E942B
:1003C000D10121E0892B09F420E0822F0895FC015E
:1003D000848DDF01A80FB11DA35ABF4F2C91848DCE
:1003E00090E001968F739927848FA689B7892C9303
:1003F000A089B1898C91837080648C93938D848D56
:10040000981306C00288F389E02D80818F7D808358
:100410000895EF92FF920F931F93CF93DF93EC0118
:1004200081E0888F9B8D8C8D981305C0E889F989B0
:10043000808185FD26C0F62E0B8D10E00F5F1F4FCB
:100440000F731127E02E8C8DE8120CC00FB607FC3D
:10045000FACFE889F989808185FFF5CFCE010E9426
:10046000E701F1CF8B8DFE01E80FF11DE35AFF4F3D
:10047000F0829FB7F8940B8FEA89FB8980818062B4
:100480000AC09FB7F894EE89FF896083E889F989EB
:1004900080818370806480839FBF81E090E0DF91E2
:1004A000CF911F910F91FF90EF900895CF93DF931D
:1004B000EC01888D8823C9F0EA89FB89808185FD5C
:1004C00005C0A889B9898C9186FD0FC00FB607FCBD
:1004D000F5CF808185FFF2CFA889B9898C9185FFFE
:1004E000EDCFCE010E94E701E7CFDF91CF910895D4
:1004F00080E090E0892B29F00E94DD0181110C94AD
:1005000000000895CF92DF92EF92FF92CF93DF9396
:10051000EC01603282E078070CF03DC077FD06C048
:10052000653B71052CF064EB70E002C060E070E0A8
:10053000898128E830E06901C81AD10887FDD39481
:10054000CC0CDD1CCC0CDD1C0D2C000CEE08FF08C7
:100550008A8128E532E0281B310987FD3395220F77
:10056000331F220F331FC901330FAA0BBB0B9C0192
:10057000AD012C193D094E095F09DB010E943707C7
:1005800024EB30E040E050E00E940D07C20ED31E85
:10059000E41EF51EB60138813C3080F5298188E8DB
:1005A00090E0821B910927FD9395880F991F880F72
:1005B000991F6817790784F08A8148E552E0481B43
:1005C000510987FD5395440F551F440F551FCB010B
:1005D000461757070CF4CA010297880F991F4FB7A7
:1005E000F894232F30E0F901EE0FFF1F2E0F3F1F6D
:1005F000F901E85EFE4F928381834FBFDF91CF9177
:10060000FF90EF90DF90CF9008951F93CF93DF93EB
:10061000EC01162F88818C3008F04EC061E0812FEC
:100620000E94D9008881E82FF0E09F01220F331F3C
:10063000E20FF31FE85EFE4F1F739081907C192B31
:10064000108319821A826CE00E94A1089CE0899FA5
:10065000B001112440E050E09B01240F351FF90147
:10066000EE0FFF1F2E0F3F1FF901E85EFE4F908136
:1006700096FD16C04F5F5F4F4C30510569F78111F1
:100680000FC01092800082E080938100109285005C
:1006900010928400B19A80916F00826080936F0005
:1006A000E881F0E0CF01880F991FE80FF91FE85E9D
:1006B000FE4F8081806480838881DF91CF911F917C
:1006C00008958F929F92AF92BF920F931F93CF93F3
:1006D000DF93CDB7DEB7A1970FB6F894DEBF0FBE9C
:1006E000CDBF19A2423008F44AE08E010F5D1F4FC2
:1006F000842E912CA12CB12CA50194010E943F07BE
:10070000E62FB901CA0101501109EA3014F4E05D85
:1007100001C0E95CD801EC93232B242B252B61F736
:100720000115110571F0F80101900020E9F73197EA
:10073000AF01401B510BB80185E491E00E947201AA
:1007400002C080E090E0A1960FB6F894DEBF0FBE25
:10075000CDBFDF91CF911F910F91BF90AF909F9030
:100760008F9008950E94B3081F920F920FB60F92B8
:1007700011242F933F938F939F93AF93BF938091B7
:100780003D0190913E01A0913F01B0914001309117
:100790003C0123E0230F2D3720F40196A11DB11D4C
:1007A00005C026E8230F0296A11DB11D20933C0130
:1007B00080933D0190933E01A0933F01B09340018F
:1007C0008091410190914201A0914301B091440177
:1007D0000196A11DB11D8093410190934201A09308
:1007E0004301B0934401BF91AF919F918F913F918D
:1007F0002F910F900FBE0F901F9018951F920F9280
:100800000FB60F9211242F933F934F935F936F93E3
:100810007F938F939F93AF93BF93EF93FF9385E461
:1008200091E00E94E701FF91EF91BF91AF919F91FD
:100830008F917F916F915F914F913F912F910F9089
:100840000FBE0F901F9018951F920F920FB60F9228
:1008500011242F938F939F93EF93FF93E091550172
:10086000F09156018081E0915B01F0915C0182FD85
:1008700012C0908180915E018F5F8F7320915F0124
:10088000821751F0E0915E01F0E0EB5BFE4F958F37
:1008900080935E0101C08081FF91EF919F918F91C4
:1008A0002F910F900FBE0F901F9018951F920F92CF
:1008B0000FB60F9211242F933F934F935F936F9333
:1008C0007F938F939F93AF93BF93EF93FF93809109
:1008D000160187FF05C010928500109284001BC08E
:1008E00020911601022E000C330B8091170190E02D
:1008F0002817390784F480911601082E000C990BF3
:10090000FC01EE0FFF1F8E0F9F1FFC01E85EFE4FE4
:10091000808186FD15C0809116018F5F809316013E
:1009200020911601022E000C330B8091170190E0EC
:1009300028173907C4F4809116018C3064F113C074
:1009400080911601082E000C990BFC01EE0FFF1F81
:100950008E0F9F1FFC01E85EFE4F808160E08F7369
:100960000E948C00D8CF80918400909185000496DD
:1009700080349C4918F480E49CE905C0809184008F
:1009800090918500049690938900809388008FEF62
:10099000809316013BC020918400309185008091A6
:1009A0001601082E000C990BFC01EE0FFF1F8E0F95
:1009B0009F1FFC01E85EFE4F81819281820F931F91
:1009C000909389008093880080911601082E000C76
:1009D000990BFC01EE0FFF1F8E0F9F1FFC01E85EBD
:1009E000FE4F808186FF12C080911601082E000CF8
:1009F000990BFC01EE0FFF1F8E0F9F1FFC01E85E9D
:100A0000FE4F808161E08F730E948C00FF91EF9117
:100A1000BF91AF919F918F917F916F915F914F9116
:100A20003F912F910F900FBE0F901F901895CF926E
:100A3000DF92EF92FF920F931F93E82FF92F05C0DB
:100A4000015011092109310961F190819623941710
:100A5000B9F305C0015011092109310911F1908143
:100A600096239413F7CFC12CD12CE12CF12C0AC082
:100A70008FEFC81AD80AE80AF80A0C151D052E05CA
:100A80003F0579F080818623841791F36C2D7D2DAD
:100A90008E2D9F2D1F910F91FF90EF90DF90CF90A3
:100AA000089560E070E080E090E01F910F91FF906A
:100AB000EF90DF90CF900895FC01909117019C304A
:100AC000A0F481E0890F809317019083892F90E033
:100AD000FC01EE0FFF1F8E0F9F1FFC01E85EFE4F13
:100AE00088EB9BE09283818308958FEF8083089544
:100AF000E5E4F1E01382128288EE93E0A0E0B0E03A
:100B000084839583A683B78384E091E09183808377
:100B100085EC90E09587848784EC90E097878687C2
:100B200080EC90E0918B808B81EC90E0938B828BBA
:100B300082EC90E0958B848B86EC90E0978B868B93
:100B4000118E128E138E148E89EE91E00E945C0538
:100B500086EE91E00E945C0583EE91E00E945C05C8
:100B600084E191E08093E2010895789484B58260F5
:100B700084BD84B5816084BD85B5826085BD85B541
:100B8000816085BD80916E00816080936E001092BF
:100B9000810080918100826080938100809181003A
:100BA00081608093810080918000816080938000CB
:100BB0008091B10084608093B1008091B000816029
:100BC0008093B00080917A00846080937A00809155
:100BD0007A00826080937A0080917A0081608093AD
:100BE0007A0080917A00806880937A001092C10028
:100BF000E0915501F091560182E08083E09151012E
:100C0000F09152011082E0915301F09154018FEC68
:100C1000808310925D01E0915901F0915A0186E0C4
:100C20008083E0915701F091580180818061808339
:100C3000E0915701F0915801808188608083E091B4
:100C40005701F0915801808180688083E0915701BD
:100C5000F091580180818F7D808367E070E089EE9C
:100C600091E00E94050365E070E086EE91E00E944D
:100C7000050366E070E083EE91E00E94050368E200
:100C800070E089EE91E00E94820268E270E086EEF8
:100C900091E00E94820269E670E083EE91E00E949A
:100CA000820261E089E00E94D90060E08AE00E944F
:100CB000D900C3E0D0E093E2E92EF12C24EAC22E61
:100CC00020E0D22E30E9A32E30E0B32E60E089E0A0
:100CD0000E948C00CE010197F1F761E089E00E944B
:100CE0008C00C7010197F1F760E089E00E948C0059
:100CF000F6016491F5018491E82FF0E0EE0FFF1FFB
:100D0000E859FF4F8591949100E412E42FE030E020
:100D1000462F0E941705611571058105910549F05F
:100D2000DC01CB010196A11DB11DBC01CD019F705D
:100D300003C060E070E0CB010E94A80728E23EE714
:100D40004CE05DE30E940C0820E030E040E05FE30F
:100D50000E940C080E9470072B01770F6608770825
:100D600077FE0EC06DE285E491E00E9409026627DD
:100D70007727CB0164197509860997094AE003C0F2
:100D80004AE0C301B2010E94610342E050E062E127
:100D900071E085E491E00E94720185E491E00E9497
:100DA000D101892B41F185E491E00E94AF0180934C
:100DB000E201813301F56BE470E089EE91E00E947D
:100DC00082020E943A0168E270E089EE91E00E949E
:100DD00082020E943A0160E570E086EE91E00E9496
:100DE00082020E943A0168E270E086EE91E00E9481
:100DF00082020E943A018091E201823319F466E294
:100E000070E004C0833331F469E670E083EE91E072
:100E10000E9482020E94780259CF052E97FB1EF491
:100E200000940E94240757FD07D00E943F0707FC4B
:100E300003D04EF40C94240750954095309521959D
:100E40003F4F4F4F5F4F08959095809570956195F6
:100E50007F4F8F4F9F4F08950E946107A59F900D70
:100E6000B49F900DA49F800D911D11240895B7FF8C
:100E70000C942C070E942C07821B930B0895A1E26F
:100E80001A2EAA1BBB1BFD010DC0AA1FBB1FEE1F04
:100E9000FF1FA217B307E407F50720F0A21BB30B4F
:100EA000E40BF50B661F771F881F991F1A9469F7CB
:100EB00060957095809590959B01AC01BD01CF0127
:100EC0000895A29FB001B39FC001A39F700D811D23
:100ED0001124911DB29F700D811D1124911D089543
:100EE0000E9477076894B1110C94060808950E9437
:100EF000EB0788F09F5798F0B92F9927B751B0F0BA
:100F0000E1F0660F771F881F991F1AF0BA95C9F78D
:100F100014C0B13091F00E940508B1E008950C941E
:100F20000508672F782F8827B85F39F0B93FCCF3D1
:100F3000869577956795B395D9F73EF4909580950A
:100F4000709561957F4F8F4F9F4F0895E89409C02A
:100F500097FB3EF490958095709561957F4F8F4FEC
:100F60009F4F9923A9F0F92F96E9BB279395F69502
:100F7000879577956795B795F111F8CFFAF4BB0F80
:100F800011F460FF1BC06F5F7F4F8F4F9F4F16C0E4
:100F9000882311F096E911C0772321F09EE8872F6E
:100FA000762F05C0662371F096E8862F70E060E02A
:100FB0002AF09A95660F771F881FDAF7880F9695A3
:100FC000879597F9089557FD9058440F551F59F08C
:100FD0005F3F71F04795880F97FB991F61F09F3F26
:100FE00079F087950895121613061406551FF2CF4F
:100FF0004695F1DF08C0161617061806991FF1CF9F
:1010000086957105610508940895E894BB276627C5
:101010007727CB0197F908950E941F080C94900838
:101020000E94820838F00E94890820F0952311F070
:101030000C9479080C947F0811240C9406080E94E3
:10104000E30770F3959FC1F3950F50E0551F629F22
:10105000F001729FBB27F00DB11D639FAA27F00D11
:10106000B11DAA1F649F6627B00DA11D661F829F38
:101070002227B00DA11D621F739FB00DA11D621F1D
:10108000839FA00D611D221F749F3327A00D611D3A
:10109000231F849F600D211D822F762F6A2F11241C
:1010A0009F5750409AF0F1F088234AF0EE0FFF1F4F
:1010B000BB1F661F771F881F91505040A9F79E3FA6
:1010C000510580F00C9479080C9406085F3FE4F316
:1010D000983ED4F3869577956795B795F795E795FC
:1010E0009F5FC1F7FE2B880F911D9695879597F905
:1010F000089597F99F6780E870E060E008959FEF9A
:1011000080EC089500240A9416161706180609069E
:10111000089500240A94121613061406050608956D
:10112000092E0394000C11F4882352F0BB0F40F4F5
:10113000BF2B11F460FF04C06F5F7F4F8F4F9F4F35
:101140000895991B79E004C0991F961708F0961B23
:10115000881F7A95C9F780950895EE0FFF1F0590B7
:10116000F491E02D099481E090E0F8940C94B80893
:04117000F894FFCF21
:101174000000000009027201A0015602D101AF0172
:06118400C3010D0A00008A
:107E0000112484B714BE81FFF0D085E080938100F7
:107E100082E08093C00088E18093C10086E0809377
:107E2000C20080E18093C4008EE0C9D0259A86E02C
:107E300020E33CEF91E0309385002093840096BBD3
:107E4000B09BFECF1D9AA8958150A9F7CC24DD24C4
:107E500088248394B5E0AB2EA1E19A2EF3E0BF2EE7
:107E6000A2D0813461F49FD0082FAFD0023811F036
:107E7000013811F484E001C083E08DD089C08234E0
:107E800011F484E103C0853419F485E0A6D080C0E4
:107E9000853579F488D0E82EFF2485D0082F10E0AE
:107EA000102F00270E291F29000F111F8ED06801E7
:107EB0006FC0863521F484E090D080E0DECF843638
:107EC00009F040C070D06FD0082F6DD080E0C81688
:107ED00080E7D80618F4F601B7BEE895C0E0D1E017
:107EE00062D089930C17E1F7F0E0CF16F0E7DF06D8
:107EF00018F0F601B7BEE89568D007B600FCFDCFD4
:107F0000A601A0E0B1E02C9130E011968C91119780
:107F100090E0982F8827822B932B1296FA010C0160
:107F200087BEE89511244E5F5F4FF1E0A038BF0790
:107F300051F7F601A7BEE89507B600FCFDCF97BE46
:107F4000E89526C08437B1F42ED02DD0F82E2BD052
:107F50003CD0F601EF2C8F010F5F1F4F84911BD097
:107F6000EA94F801C1F70894C11CD11CFA94CF0C13
:107F7000D11C0EC0853739F428D08EE10CD085E9AC
:107F80000AD08FE07ACF813511F488E018D01DD067
:107F900080E101D065CF982F8091C00085FFFCCF94
:107FA0009093C60008958091C00087FFFCCF809118
:107FB000C00084FD01C0A8958091C6000895E0E648
:107FC000F0E098E1908380830895EDDF803219F02E
:107FD00088E0F5DFFFCF84E1DECF1F93182FE3DFCA
:107FE0001150E9F7F2DF1F91089580E0E8DFEE27F6
:047FF000FF270994CA
:027FFE00040479
:0400000300007E007B
:00000001FF
